:100E92000A128A11F62F03178316003088000313F3
:100EA20083128501031383168501031383127E3097
:100EB20085000A128A110800031783160030880081
:100EC200031383128501031383168501031383120F
:100ED200303085000A128A11080003178316003089
:100EE20088000313831285010313831685010313FC
:100EF20083126D3085000A128A11080003178316C7
:100F020000308800031383128501031383168501C1
:100F120003138312793085000A128A11080003171D
:100F2200831600308800031383128501031383168E
:100F3200850103138312333085000A128A110800D7
:100F420003178316003088000313831285010313ED
:100F520083168501031383125B3085000A128A11FE
:100F620008000317831600308800031383128501DB
:100F7200031383168501031383125F3085000A125F
:100F82008A110800031783160030880003138312A6
:100F920085010313831685010313831270308500C4
:100FA2000A128A11080003178316003088000313FF
:100FB20083128501031383168501031383127F3085
:100FC20085000A128A110800031783160030880070
:100FD20003138312850103138316850103138312FE
:100FE2007B3085000A128A1108004C275D276E2784
:0E0FF2007F279027A127B227C327D427E52702
:04400E00C418FF3F94
:00000001FF
